:100000003DC100000C94E50D0C94100E0C943B0EB9
:100010000C94660E0C94910E0C94BC0E0C94E70E8E
:100020000C94120F5CC100005AC1000058C10000BE
:1000300056C1000054C1000052C1000050C1000070
:100040004EC100004CC100004AC1000048C1000080
:1000500046C1000044C1000042C100000C9493104E
:100060003EC100000C948A0A0C94C00A38C10000FA
:1000700036C1000034C1000032C1000030C10000B0
:100080002EC100002CC100002AC100000C943112C6
:1000900026C1000024C1000022C1000020C10000D0
:1000A0001EC100001CC100001AC1000018C10000E0
:1000B00016C1000014C1000012C1000010C10000F0
:1000C0000EC100000CC100000AC1000008C1000000
:1000D00006C1000004C1000002C1000000C1000010
:1000E000FEC00000BF0D890D910D9D0DAA0DCB0D19
:1000F000D80D88118B117A117E118411C2118F11C4
:10010000931199119D11A111A711AB11AF11C2113A
:10011000B511B911BD1105A84CCDB2D44EB93836C0
:10012000A9020C50B9918688083CA6AAAA2ABE004A
:100130000000803F00000A0B02090C0D0E080703A7
:1001400004010000000000000000000000000000AA
:10015000000000000000000000000000000000009F
:10016000121110000000000000000000000000005C
:100170000000000000000000000001021020200824
:1001800008102040102040800201020108040201F2
:100190000102040810204080804020100804020161
:1001A00080040201804020100804020108040201BA
:1001B0000102040810204080010204081020408041
:1001C00005050505070508080808020202020A0AD3
:1001D00008080404040401010101010101010303F1
:1001E000030303030303040707070C0C0C0C0C0C9C
:1001F0000C0C0202020206060606060606060B0B99
:100200000B0B0B0B0B0B00002200250028002B0012
:100210002E003100340002010000050108010B012D
:1002200000002100240027002A002D0030003300A8
:1002300001010000040107010A014E414E494E49E7
:100240005459494E46CDCCCC3D0AD7233C17B7D1A3
:100250003877CC2B329595E6241FB14F0A00002049
:10026000410000C84200401C4620BCBE4CCA1B0EC8
:100270005AAEC59D74005008F20A110911241FBE20
:10028000CFEFD1E2DEBFCDBF00E00CBF13E0A0E0B6
:10029000B2E0EEEFF3E300E00BBF02C007900D9277
:1002A000A83AB107D9F725E0A8EAB3E001C01D924A
:1002B000A333B207E1F712E0CAE7D2E000E006C0DC
:1002C00022970109FE010BBF0E943813C637D107E0
:1002D00080E00807A9F70E9485100C94EE1990CED3
:1002E000CF92DF92EF92FF920F931F93CF93DF9302
:1002F000CDB7DEB768970FB6F894DEBF0FBECDBF9F
:100300008C0182E894E095D7099709F0AEC062E8C5
:1003100074E0CE0143960E945D0D25E030E040E0A0
:1003200050E0BE016D5E7F4FCE010D960E942D10F4
:100330002F89388D45E050E0BE016D5E7F4FCE01C4
:1003400007960E942D1067E972E0CE010D960E947B
:100350000E10882359F0CE0107960E947A10AB0147
:10036000BC01F80180819181F3D236C06DE972E061
:10037000CE010D960E940E10882359F0CE010796EB
:100380000E947A10AB01BC01F80180819181ABD24F
:1003900023C063EA72E0CE010D960E940E108823FE
:1003A00049F0CE0107960E947010F801808191817A
:1003B00070D312C069EA72E0CE010D960E940E1051
:1003C000882361F0CE0107960E947A10AB01BC0130
:1003D000F8018081918161D311E03AC022E030E0E0
:1003E00040E050E0BE01635F7F4FCE0101960E9466
:1003F0002D106FEA72E0CE0101960E940E10F82EC9
:10040000CE0101960E943D0FFF2009F122E030E06D
:1004100042E050E0BE01635F7F4FCE0101960E9433
:100420002D10CE0101960E9470106B017C01CE014F
:1004300001960E943D0FCE0107960E947A109B0103
:10044000AC01B601F801808191812DD3C5CF10E0B8
:10045000CE0107960E943D0FCE010D960E943D0FE2
:10046000CE0143960E943D0F01C010E0812F689697
:100470000FB6F894DEBF0FBECDBFDF91CF911F91B5
:100480000F91FF90EF90DF90CF900895EF92FF9241
:100490000F931F93CF93DF93EC018FE00E944B11DA
:1004A000BC01882777FD8095982F0E9463142AEB62
:1004B00038EE46E951E40E9417152EE230E940EA91
:1004C0005BE30E94171520E030E040EA51E40E940F
:1004D000601320E030E04AE754E40E9417157B01E6
:1004E0008C0120E030E0A9010E94C413C85BDF4FFB
:1004F00018162CF0E880F9800A811B8106C0A7013C
:10050000B801488359836A837B83B701C801DF91AF
:10051000CF911F910F91FF90EF900895EF92FF926E
:100520000F931F93CF93DF93EC0183E00E944B1155
:10053000BC01882777FD8095982F0E9463142EE2D6
:1005400030E940EA5BE30E9417157B018C0120E053
:1005500030E0A9010E94C413CC5BDF4F87FF05C0C8
:10056000E880F9800A811B8106C0A701B801488391
:1005700059836A837B83B701C801DF91CF911F91B3
:100580000F91FF90EF900895EF92FF920F931F93BA
:10059000CF93DF93EC0181E00E944B11BC018827CF
:1005A00077FD8095982F0E9463142EE230E940EA8F
:1005B0005BE30E94171526EA3BE94BE951EC0E94E8
:1005C00017152FE135E442EB52E40E94601320E05E
:1005D00030E848E853E40E9460137B018C0120E07E
:1005E00030E848E853E40E94C413C45BDF4F181698
:1005F0002CF0E880F9800A811B8106C0A701B801B0
:10060000488359836A837B83B701C801DF91CF9107
:100610001F910F91FF90EF900895EF92FF920F932B
:100620001F93CF93DF93EC018EE00E944B11BC012E
:10063000882777FD8095982F0E9463142EE230E979
:1006400040EA5BE30E94171526EA3BE94BE951ECCF
:100650000E9417152FE135E442EB52E40E9460132B
:1006600020E030E848E853E40E9460137B018C01ED
:1006700020E030E848E853E40E94C413C05BDF4F39
:1006800018162CF0E880F9800A811B8106C0A701AA
:10069000B801488359836A837B83B701C801DF911E
:1006A000CF911F910F91FF90EF900895EF92FF92DD
:1006B0000F931F93CF93DF93EC0182E00E944B11C5
:1006C000BC01882777FD8095982F0E9463142EE245
:1006D00030E940EA5BE30E9417152DE33AE047E575
:1006E0005FE30E945F1321EA30EB4DEC5EE30E9472
:1006F00017150E947A157B018C0120E030E0A901DA
:100700000E94C413CC5ADF4F87FF05C0E880F980F0
:100710000A811B8106C0A701B801488359836A83F7
:100720007B83B701C801DF91CF911F910F91FF909B
:10073000EF900895CF93DF93EC01A8DECE01EEDEBB
:10074000CE0122DFCE0169DFCE01DF91CF91AECFA6
:10075000CF92DF92EF92FF920F931F93CF93DF938D
:10076000EC01A881B98120E63AEE0E9428130E948C
:1007700063146B017C010E94DD100E811F812885AE
:100780003985601B710B820B930B0E9461149B01D6
:10079000AC01C701B6010E94C8130E943014CE5BA1
:1007A000DF4F79836883CB01DF91CF911F910F9148
:1007B000FF90EF90DF90CF900895FC0180819181B0
:1007C00001969183808342815381648175814F5F5B
:1007D0005F4F6F4F7F4F42835383648375830895C8
:1007E000CF93DF93EC010E94DD106E877F87888BAB
:1007F000998BDF91CF91089577FF05C063EB72E08D
:1008000082E894E07BC7FC01738F628F089577FFC5
:1008100005C06CEC72E082E894E070C7FC01428B8A
:10082000538B648B758B0895CF93DF93EC01CB01D1
:100830006AEF70E00E94ED126032710514F06FE112
:1008400070E0660F771FEEA1FFA1E60FF71F208172
:1008500031818A899B89280F391F31832083DF9159
:10086000CF910895660F771FDC019696ED91FC916C
:100870009797E60FF71F518340830895CF93DF9337
:10088000EC010E94DD106E8B7F8B888F998FDF913A
:10089000CF910895CF92DF92EF92FF92CF93DF93A3
:1008A000EC016A017B0120E030E0A901C701B6013B
:1008B0000E94C41387FF0BC065EE72E082E894E0EB
:1008C000DF91CF91FF90EF90DF90CF9017C7EE961A
:1008D000C882D982EA82FB82DF91CF91FF90EF90AC
:1008E000DF90CF900895CF92DF92EF92FF92CF9357
:1008F000DF93EC016A017B0120E030E0A901C70130
:10090000B6010E94C41387FF0BC06DEF72E082E84E
:1009100094E0DF91CF91FF90EF90DF90CF90EEC603
:10092000CEA6DFA6E8AAF9AADF91CF91FF90EF90BB
:10093000DF90CF90089577FF05C06CE073E082E808
:1009400094E0DCC6FC0142A353A364A375A30895FD
:10095000CF92DF92EF92FF92CF93DF93EC016A0187
:100960007B0120E030E0A901C701B6010E94C41359
:1009700087FF0BC067E273E082E894E0DF91CF91DC
:10098000FF90EF90DF90CF90B9C6CAAADBAAECAA7D
:10099000FDAADF91CF91FF90EF90DF90CF90089567
:1009A000CF92DF92EF92FF92CF93DF93EC016A0137
:1009B0007B0120E030E0A901C701B6010E94C41309
:1009C00087FF0BC067E273E082E894E0DF91CF918C
:1009D000FF90EF90DF90CF9091C6CAAEDBAEECAE49
:1009E000FDAEDF91CF91FF90EF90DF90CF90089513
:1009F000FC011182108208950F931F93CF93DF9310
:100A0000FC01DC01AE5BBF4F1D921C9246A957A9A9
:100A100060AD71AD42AF53AF64AF75AF1282138258
:100A20001482158212A613A614A615A6C0A5D1A5D8
:100A300080E090E08C179D07DCF49C01220F331FAF
:100A4000A6A1B7A1A20FB31F0D911C91222717FDDC
:100A50002095322F42A553A564A575A5400F511FBF
:100A6000621F731F42A753A764A775A70196E2CF21
:100A7000DF91CF911F910F910895CF93DF93EC01F8
:100A80000E94DD106A877B878C879D87DF91CF91DD
:100A90000895FC01758F648F0895FC01468F578F70
:100AA00060A371A308956A5E7F4F660F771F660F7C
:100AB000771F680F791FFB012083318342835383A3
:100AC0000895CF93DF93EC01CB016AEF70E00E94B1
:100AD000ED1288A599A5861797071CF4BC016150F3
:100AE0007109FB017696EE0FFF1FEE0FFF1FEC0F53
:100AF000FD1F6081718182819381DF91CF91089583
:100B00008091C4039091C5030197F1F460E082E302
:100B10000E94FC110E94DD10AB01BC018091B80362
:100B20009091B903A091BA03B091BB03481B590B34
:100B30006A0B7B0B8AEA93E06ADE6091EC037091AA
:100B4000ED038AEA93E070DE6091C4037091C503FF
:100B50006F5F7F4F8AEA93E04FCE8AEA93E02DDE03
:100B60008091AC039091AD03A091AE03B091AF031F
:100B700080FD04C04997A105B105E0F461E082E37E
:100B80000E94FC118AEA93E02BDE60E070E08AEAC2
:100B900093E032DE4091CC035091CD036091CE03BF
:100BA0007091CF0388E295E00E945C1288E295E0A4
:100BB0000C94E8120895CF92DF92EF92FF92C090CA
:100BC000FE03D090FF03E0900004F09001048AEA55
:100BD00093E06CDD9B01AC01C701B6010E945F137D
:100BE00020E030E0A9010E941315C090FE03D090D0
:100BF000FF03E0900004F0900104181684F48AEAE0
:100C000093E054DD9B01AC01C701B6010E945F1364
:100C100020E030E040E85FE30E94601311C08AEA00
:100C200093E044DD9B01AC01C701B6010E945F1354
:100C30009B01AC0160E070E080E89FE30E945F13DD
:100C4000AB01BC018AEA93E025DE8091AC03909170
:100C5000AD03A091AE03B091AF03E090EC03F09030
:100C6000ED030397A105B10508F4A0C02DEC3CEC01
:100C70004CEC5DE36091FE037091FF0380910004F2
:100C8000909101040E94C41318160CF48FC0809137
:100C9000C6039091C7038E159F057CF427E137EBBF
:100CA00041ED58E36091DC037091DD038091DE0338
:100CB0009091DF030E94601311C0E816F9069CF4BE
:100CC00027E137EB41ED58E36091DC037091DD03E0
:100CD0008091DE039091DF030E945F13AB01BC01A2
:100CE0008AEA93E035DE24E13CE644E359E360918F
:100CF000F2037091F3038091F4039091F5030E9445
:100D000017156B017C012091D8033091D9034091D4
:100D1000DA035091DB036091FA037091FB03809139
:100D2000FC039091FD030E94171529E838E848E07C
:100D300050E40E9417159B01AC01C701B6010E9447
:100D4000C81320E034E244E759E40E9417152091CB
:100D5000DC033091DD034091DE035091DF030E94FC
:100D600017152091E4033091E5034091E60350917B
:100D7000E7030E9417152091E8033091E9034091A1
:100D8000EA035091EB030E94171520E030E04FEA90
:100D900053E40E9460130E943014AB01BC018AEA44
:100DA00093E0FF90EF90DF90CF90C5CDB7018AEA36
:100DB00093E087DEAB01BC018AEA93E094DD93CF38
:100DC000CF93DF9361E082E30E94C31126E040E805
:100DD00055E260E070E082E894E03AD36BE373E0C0
:100DE00082E894E08BD48AEA93E09093A9038093FD
:100DF000A8035CDC42E050E06DEA75E082E075D665
:100E0000DADE40EA56E861E070E088E295E00E94B0
:100E1000BF122091CC033091CD034091CE0350916D
:100E2000CF0360E875E088E295E00E94CE1264E0AE
:100E300070E08AEA93E0E0DC40E050E0BA018AEA40
:100E400093E0E5DC8AEA93E0CBDC8AEA93E016DD06
:100E5000C0E0D0E08091D2039091D303C817D907A6
:100E600044F440E050E0BE018AEA93E0FBDC2196C6
:100E7000F1CFDF91CF9108950E94DD10AB01BC014D
:100E80002AE030E082E894E0E4D463E873E082E8AA
:100E900094E029D44091F6035091F7036091F80350
:100EA0007091F90322E030E082E894E0C9D563E86C
:100EB00073E082E894E017D44091FA035091FB0369
:100EC0006091FC037091FD0322E030E082E894E041
:100ED000B7D563E873E082E894E005D44091F2036B
:100EE0005091F3036091F4037091F50322E030E038
:100EF00082E894E0A5D563E873E082E894E0F3D358
:100F00004091FE035091FF03609100047091010431
:100F100022E030E082E894E093D563E873E082E871
:100F200094E0E1D34091EE035091EF036091F00320
:100F30007091F10322E030E082E894E081D563E82B
:100F400073E082E894E0CFD36091EC037091ED03FD
:100F50004AE050E082E894E075D463E873E082E808
:100F600094E0C1D34091CC035091CD036091CE0366
:100F70007091CF032AE030E082E894E01CD463E86B
:100F800073E082E894E0AFD34091BC035091BD037D
:100F90006091BE037091BF032AE030E082E894E0E4
:100FA0000AD463E873E082E894E09DD34091AC03F7
:100FB0005091AD036091AE037091AF032AE030E031
:100FC00082E894E046D463E873E082E894E08BD34F
:100FD0004091DC035091DD036091DE037091DF03EB
:100FE00022E030E082E894E02CC50F931F9388EA5A
:100FF00093E076D98AEA93E09DDB8091AA039091F1
:10100000AB034E976CF08AEA93E0A2DB40E050E03D
:1010100060E87FE38AEA93E0C3DC8AEA93E0E8DCF5
:10102000CADD0E94DD100091B0031091B103209140
:10103000B2033091B303601B710B820B930B683EBC
:1010400073408105910580F08AEA93E0D5DC4091F8
:10105000D4035091D5036091D6037091D7032AE051
:1010600030E082E894E001D40E94DD100091B403E6
:101070001091B5032091B6033091B703601B710B3B
:10108000820B930B643F71408105910530F0F4DED3
:101090008AEA93E01F910F91F0CC1F910F91089570
:1010A0001092AB031092AA031092AC031092AD03FE
:1010B0001092AE031092AF031092B0031092B103DE
:1010C0001092B2031092B3031092B4031092B503BE
:1010D0001092B6031092B7031092B8031092B9039E
:1010E0001092BA031092BB031092BC031092BD037E
:1010F0001092BE031092BF031092C5031092C40356
:1011000088EB9BE09093C7038093C60380E090E058
:10111000A0E0BFE38093C8039093C903A093CA03E0
:10112000B093CB031092D4031092D5031092D60340
:101130001092D70380E090E0A8E7B1E48093D80351
:101140009093D903A093DA03B093DB038AE999E97A
:10115000A9E9BFE38093DC039093DD03A093DE0352
:10116000B093DF038093E0039093E103A093E20345
:10117000B093E30380E090E0A0E0B0E48093E40368
:101180009093E503A093E603B093E7031092E8037E
:101190001092E9031092EA031092EB031092ED0310
:1011A0001092EC031092EE031092EF031092F003F2
:1011B0001092F1031092F2031092F3031092F403D1
:1011C0001092F5031092F6031092F7031092F803B1
:1011D0001092F9031092FA031092FB031092FC0391
:1011E0001092FD031092FE031092FF031092000470
:1011F0001092010480E8E7E1F2E0A2E0B4E001909F
:101200000D928A95E1F780E290E09093D30380936A
:10121000D20380E490E085D79093D1038093D003EC
:1012200008958091D0039091D103009709F07AC777
:101230000895FC01818D228D90E0805C9F4F821B80
:1012400091098F7399270895FC01918D828D9817CC
:1012500031F0828DE80FF11D858D90E008958FEFBC
:101260009FEF0895FC01918D828D981761F0828D1A
:10127000DF01A80FB11D5D968C91928D9F5F9F73CA
:10128000928F90E008958FEF9FEF089589EE9AE096
:10129000892B39F080E090E0892B19F09AD18111E7
:1012A00025C080E090E0892B41F080E090E0892B20
:1012B00021F00E94000081111CC080E090E0892B89
:1012C00041F080E090E0892B21F00E940000811124
:1012D00013C080E090E0892BA1F080E090E0892BA2
:1012E00081F00E94000081110AC008950E94000050
:1012F000D8CF0E940000E1CF0E940000EACF0C94FA
:1013000000000895FC01848DDF01A80FB11DA35AD0
:10131000BF4F2C91848D90E001968F739927848F15
:10132000A689B7892C93A089B1898C9180648C930C
:10133000938D848D981306C00288F389E02D8081F7
:101340008F7D80830895CF93DF93EC01888D882370
:10135000C1F0EA89FB89808185FD05C0A889B9892A
:101360008C9186FD0EC00FB607FCF5CF808185FFFE
:10137000F2CFA889B9898C9185FFEDCFCE01C2DF6C
:10138000E8CFDF91CF910895CF92DF92FF920F9334
:101390001F93CF93DF931F92CDB7DEB76C0181E02F
:1013A000D60158968C9358975B969C915B975C9668
:1013B0008C915C97981307C05096ED91FC915197D2
:1013C000808185FD2DC0F601038D10E00F5F1F4F5A
:1013D0000F731127F02EF601848DF81210C00FB68E
:1013E00007FCF9CFD6015096ED91FC915197808181
:1013F00085FFF1CFC601698385DF6981ECCF838DDD
:10140000E80FF11DE35AFF4F6083D6015B960C9302
:101410005B975296ED91FC915397808180620CC04E
:10142000D6015696ED91FC91579760835096ED91B9
:10143000FC91519780818064808381E090E00F90DF
:10144000DF91CF911F910F91FF90DF90CF90089582
:10145000BF92CF92DF92EF92FF92CF93DF93EC0196
:101460006A017B01B22EE889F98982E08083411507
:1014700081EE580761057105A1F060E079E08DE328
:1014800090E0A70196010E94001321503109410903
:1014900051095695479537952795211580E13807CD
:1014A00098F0E889F989108260E874E88EE190E0AC
:1014B000A70196010E9400132150310941095109E9
:1014C0005695479537952795EC85FD853083EE85B4
:1014D000FF852083188EEC89FD89B082EA89FB891B
:1014E000808180618083EA89FB8980818860808334
:1014F000EA89FB89808180688083EA89FB89808111
:101500008F7D8083DF91CF91FF90EF90DF90CF9020
:10151000BF9008951F920F920FB60F9211240BB631
:101520000F922F938F939F93EF93FF93E0919204E9
:10153000F09193048081E0919804F091990482FDE8
:1015400012C0908180919B048F5F8F7320919C04C7
:10155000821751F0E0919B04F0E0EE57FB4F958F1E
:1015600080939B0401C08081FF91EF919F918F91A7
:101570002F910F900BBE0F900FBE0F901F901895DC
:101580001F920F920FB60F9211240BB60F922F934A
:101590003F934F935F936F937F938F939F93AF93FB
:1015A000BF93EF93FF9382E894E0ACDEFF91EF915D
:1015B000BF91AF919F918F917F916F915F914F916B
:1015C0003F912F910F900BBE0F900FBE0F901F9069
:1015D000189582E894E02DDE21E0892B09F420E0C3
:1015E000822F0895109285041092840488EE93E06F
:1015F000A0E0B0E08093860490938704A0938804D1
:10160000B09389048AE893E09093830480938204E2
:1016100085EC90E090938F0480938E0484EC90E0AE
:10162000909391048093900480EC90E090939304C5
:101630008093920481EC90E09093950480939404BD
:1016400082EC90E0909397048093960486EC90E06F
:10165000909399048093980410929B0410929C0498
:1016600010929D0410929E040895CF92DF92EF9203
:10167000FF920F931F93CF93DF937C016A01EB01DD
:1016800000E010E00C151D0571F06991D701ED9196
:10169000FC910190F081E02DC7011995892B19F07B
:1016A0000F5F1F4FEFCFC801DF91CF911F910F91B7
:1016B000FF90EF90DF90CF9008956115710581F054
:1016C000DB010D900020E9F7AD0141505109461BA7
:1016D000570BDC01ED91FC910280F381E02D199410
:1016E00080E090E00895E9CFDC01ED91FC9101905C
:1016F000F081E02D199466E973E0DFCF0F931F931B
:10170000CF93DF93EC01D9DF8C01CE01F4DF800FA2
:10171000911FDF91CF911F910F9108958F929F920A
:10172000AF92BF92DF92EF92FF920F931F93CF93EE
:10173000DF93CDB7DEB7A1970FB6F894DEBF0FBE2B
:10174000CDBF7C01F42FD52ECB0119A2223008F495
:101750002AE08E010F5D1F4F822E912CA12CB12CFF
:101760006F2F7D2DA50194014BD7F22FD32ECA01E7
:10177000015011096A3014F4E0E301C0E7E3E60F19
:10178000D801EC93232B242B252B51F7B801C7014B
:1017900094DFA1960FB6F894DEBF0FBECDBFDF91E8
:1017A000CF911F910F91FF90EF90DF90BF90AF907E
:1017B0009F908F900895CF92DF92EF92FF920F93B8
:1017C0001F93CF93DF93EC016A017B012115310553
:1017D00079F4E881F9810190F081E02D642FDF91A7
:1017E000CF911F910F91FF90EF90DF90CF901994C0
:1017F0002A303105D9F477FF18C06DE275DF8C010E
:1018000044275527BA014C195D096E097F092AE062
:10181000CE0184DF800F911FDF91CF911F910F9137
:10182000FF90EF90DF90CF9008952AE0B701A601D6
:10183000CE01DF91CF911F910F91FF90EF90DF903C
:10184000CF906CCF9A01AB01662757FD6095762F3C
:10185000B2CF2115310541F4DC01ED91FC910190ED
:10186000F081E02D642F199459CF0F931F93CF93DC
:10187000DF93EC01EEDF8C01CE013DDF800F911F85
:10188000DF91CF911F910F9108954F925F926F92C8
:101890007F928F929F92AF92BF92CF92DF92EF9200
:1018A000FF920F931F93CF93DF93EC016A017B01AB
:1018B000B22E9A01AB01C701B6010E9480158823A0
:1018C00019F069E973E026C026013701E89477F83A
:1018D0002FEF3FEF4FE75FE7C301B2010E94801592
:1018E00081110CC02FEF3FEF4FE75FE7C301B2015B
:1018F0004BD718161CF46DE973E00CC02FEF3FEFC7
:101900004FE75FE4C701B6010E9413151816A4F44F
:1019100061EA73E0CE01DF91CF911F910F91FF90AB
:10192000EF90DF90CF90BF90AF909F908F907F907F
:101930006F905F904F90C1CE2FEF3FEF4FE75FEC7E
:10194000C701B60121D787FDE3CF20E030E0A90130
:10195000C701B60119D787FF09C06DE2CE01C4DE09
:101960008C01F7FAF094F7F8F09402C000E010E070
:10197000A12C60E070E080E09FE3AB1439F020E040
:1019800030E040E251E404D7A394F7CF9B01AC01CF
:10199000C701B60195D66B017C0167D72B013C01CD
:1019A00090D79B01AC01C701B60189D66B017C01C0
:1019B0002AE0B301A201CE01B1DE080F191FBB203E
:1019C00031F065EA73E0CE0178DE080F191F7B2C39
:1019D000772021F120E030E040E251E4C701B60178
:1019E0000E9417156B017C013BD74B01AA2497FC81
:1019F000A094BA2C2AE030E0B501A401CE01DBDED0
:101A0000080F191FC501B4015ED79B01AC01C701C6
:101A1000B60155D66B017C017A94DACFC801DF910B
:101A2000CF911F910F91FF90EF90DF90CF90BF90DB
:101A3000AF909F908F907F906F905F904F900895A0
:101A400024CF0F931F93CF93DF93EC011EDF8C0104
:101A5000CE0151DE800F911FDF91CF911F910F9129
:101A600008950F931F93CF93DF93EC01A6D368875C
:101A700079878A879B87E881F9810680F781E02D45
:101A8000CE01199597FF14C098D3088519852A852A
:101A90003B85601B710B820B930B0C811D812E818A
:101AA0003F81601771078207930728F38FEF9FEF3D
:101AB000DF91CF911F910F9108950F931F93CF93B3
:101AC000DF93EC018B0168E973E03FD2C801C9DF05
:101AD00097FD04C0682FCE018ED2F8CFCE01DF91E2
:101AE000CF911F910F9108950895883008F06CC030
:101AF000E82FF0E0EE0FFF1FEA5FFD4F7183608378
:101B000090E0FC013197E730F10588F5EE58FF4F82
:101B100099C5809169008C7F842B80936900E89A35
:101B2000089580916900440F551F440F551F837F0E
:101B3000842B80936900E99A08958091690074E08C
:101B4000440F551F7A95E1F78F7C842B80936900B1
:101B5000EA9A08958091690066E0440F551F6A95DE
:101B6000E1F78F73842B80936900EB9A089580913D
:101B70006A008C7F842B80936A00EC9A0895809190
:101B80006A00440F551F440F551F837F842B809399
:101B90006A00ED9A089580916A0024E0440F551F71
:101BA0002A95E1F78F7C842B80936A00EE9A089542
:101BB00080916A0096E0440F551F9A95E1F78F7364
:101BC000842B80936A00EF9A08951F920F920FB6AC
:101BD0000F9211240BB60F922F933F934F935F9365
:101BE0006F937F938F939F93AF93BF93EF93FF93E5
:101BF000E0910A02F0910B021995FF91EF91BF91CC
:101C0000AF919F918F917F916F915F914F913F9194
:101C10002F910F900BBE0F900FBE0F901F90189535
:101C20001F920F920FB60F9211240BB60F922F93A3
:101C30003F934F935F936F937F938F939F93AF9354
:101C4000BF93EF93FF93E0910C02F0910D02199571
:101C5000FF91EF91BF91AF919F918F917F916F9184
:101C60005F914F913F912F910F900BBE0F900FBE40
:101C70000F901F9018951F920F920FB60F9211247C
:101C80000BB60F922F933F934F935F936F937F9376
:101C90008F939F93AF93BF93EF93FF93E0910E02C7
:101CA000F0910F021995FF91EF91BF91AF919F9124
:101CB0008F917F916F915F914F913F912F910F90F5
:101CC0000BBE0F900FBE0F901F9018951F920F9292
:101CD0000FB60F9211240BB60F922F933F934F9391
:101CE0005F936F937F938F939F93AF93BF93EF9384
:101CF000FF93E0911002F09111021995FF91EF917D
:101D0000BF91AF919F918F917F916F915F914F9113
:101D10003F912F910F900BBE0F900FBE0F901F9011
:101D200018951F920F920FB60F9211240BB60F92B7
:101D30002F933F934F935F936F937F938F939F93D3
:101D4000AF93BF93EF93FF93E0910602F0910702E8
:101D50001995FF91EF91BF91AF919F918F917F91D5
:101D60006F915F914F913F912F910F900BBE0F900C
:101D70000FBE0F901F9018951F920F920FB60F92E3
:101D800011240BB60F922F933F934F935F936F9352
:101D90007F938F939F93AF93BF93EF93FF93E091C4
:101DA0000802F09109021995FF91EF91BF91AF914F
:101DB0009F918F917F916F915F914F913F912F9163
:101DC0000F900BBE0F900FBE0F901F9018951F9293
:101DD0000F920FB60F9211240BB60F922F933F93D1
:101DE0004F935F936F937F938F939F93AF93BF9323
:101DF000EF93FF93E0911202F09113021995FF9176
:101E0000EF91BF91AF919F918F917F916F915F9172
:101E10004F913F912F910F900BBE0F900FBE0F90DF
:101E20001F9018951F920F920FB60F9211240BB6A8
:101E30000F922F933F934F935F936F937F938F9363
:101E40009F93AF93BF93EF93FF93E0911402F091B0
:101E500015021995FF91EF91BF91AF919F918F91CD
:101E60007F916F915F914F913F912F910F900BBE9A
:101E70000F900FBE0F901F901895FC0180819181EB
:101E800058C7CF93DF93EC0188819981009709F0BF
:101E900050D7198218821D821C821B821A82DF9100
:101EA000CF9108950F931F93CF93DF93EC018B0194
:101EB0006F5F7F4F88819981CBD7009731F09983ED
:101EC00088831B830A8381E001C080E0DF91CF918A
:101ED0001F910F910895CF93DF93EC018881998131
:101EE000892B29F08A819B818617970758F4CE01A8
:101EF000D9DF882341F08C819D81892B19F4E881F9
:101F0000F981108281E0DF91CF910895EF92FF92E5
:101F10000F931F93CF93DF93EC017B018A01BA01EA
:101F2000DADF811103C0CE01ACDF07C01D830C8353
:101F3000B701888199810E944F18CE01DF91CF911E
:101F40001F910F91FF90EF900895FC011182108274
:101F500013821282158214826115710551F0FB0102
:101F600001900020E9F7AF0141505109461B570B82
:101F7000CDCF0895CF93DF93EC016115710559F032
:101F8000FB0101900020E9F7AF0141505109461BC8
:101F9000570BBCDF01C075DFCE01DF91CF910895F3
:101FA000EF92FF920F931F93CF93DF93EC017B018E
:101FB0000C811D816115710511F480E015C041157A
:101FC000510589F0040F151FB80185DF8823A9F397
:101FD000288139818C819D81B701820F931F0E94D6
:101FE0004F181D830C8381E0DF91CF911F910F91DA
:101FF000FF90EF900895CF93DF931F921F92CDB77C
:10200000DEB769831A8241E050E0BE016F5F7F4F07
:10201000C7DF0F900F90DF91CF910895FC012481CD
:102020003581232B31F421E061157105A1F0FB010D
:1020300008C0FC01808191816115710531F421E0B6
:10204000FC018081882339F005C00E94461821E0F8
:10205000892B09F020E0822F0895BF92CF92DF9262
:10206000EF92FF920F931F93CF93DF936C017B014D
:10207000EA0189012417350720F48D2FE901042F87
:10208000182F68E973E0C60160DFD70114968D91BF
:102090009C911597C817D907C0F48017910708F4C9
:1020A0008C01D701ED91FC911197E00FF11FB080E9
:1020B00010826D917C916C0F7D1FC6015BDFD70193
:1020C000ED91FC91E00FF11FB082C601DF91CF913D
:1020D0001F910F91FF90EF90DF90CF90BF900895E8
:1020E000FC0180819181009709F099C760E070E060
:1020F000CB010895FC0180819181009709F08CC784
:1021000060E070E0CB010895089563D0FDDF0E9488
:10211000E006C6E4D9E00E94F5072097E1F3B6D8BF
:10212000FACF6FC506C61F920F920FB60F921124F9
:102130002F933F938F939F93AF93BF9380912005ED
:1021400090912105A0912205B091230530911F05A2
:1021500023E0230F2D3720F40196A11DB11D05C0EA
:1021600026E8230F0296A11DB11D20931F05809321
:10217000200590932105A0932205B093230580911B
:10218000240590912505A0912605B091270501967B
:10219000A11DB11D8093240590932505A0932605CC
:1021A000B0932705BF91AF919F918F913F912F9150
:1021B0000F900FBE0F901F9018952FB7F894609155
:1021C00020057091210580912205909123052FBF54
:1021D0000895789484B5826084BD84B5816084BD9F
:1021E00085B5826085BD85B5816085BDEEE6F0E090
:1021F000808181608083E1E8F0E0108280818260EC
:102200008083808181608083E0E8F0E0808181606C
:102210008083E1EBF0E0808184608083E0EBF0E09C
:10222000808181608083E1E9F0E080818260808349
:10223000808181608083E0E9F0E08081816080833B
:10224000E1EAF0E080818260808380818160808328
:10225000E0EAF0E0808181608083E1E2F1E080816A
:1022600082608083808181608083E0E2F1E0808110
:1022700081608083EAE7F0E08081846080838081F0
:102280008260808380818160808380818068808398
:102290001092C1000895863308F0865320917B0088
:1022A000982F9870277F922B90937B0087702091B6
:1022B000160290E4299F90011124822B80937C00C8
:1022C00080917A00806480937A0080917A0086FD04
:1022D000FCCF809178002091790090E0922B0895B6
:1022E00090E0FC013197E231F10508F04BC0E7586E
:1022F000FF4FA8C1809180008F7703C0809180003C
:102300008F7D80938000089580918000877FF9CF32
:1023100084B58F7702C084B58F7D84BD0895809188
:10232000B0008F7703C08091B0008F7D8093B000A4
:102330000895809190008F7707C0809190008F7DE5
:1023400003C080919000877F8093900008958091D2
:10235000A0008F7707C08091A0008F7D03C080917F
:10236000A000877F8093A0000895809120018F773F
:1023700007C0809120018F7D03C080912001877F5D
:10238000809320010895CF93DF9390E0FC01E658FD
:10239000FE4F2491FC01E054FE4F8491882349F1C3
:1023A00090E0880F991FFC01E05EFD4FA591B4916C
:1023B0008A5F9D4FFC01C591D4919FB7611108C000
:1023C000F8948C91209582238C93888182230AC073
:1023D000623051F4F8948C91322F309583238C9392
:1023E0008881822B888304C0F8948C91822B8C93F3
:1023F0009FBFDF91CF9108950F931F93CF93DF93EA
:102400001F92CDB7DEB7282F30E0F901EC5CFE4F0C
:102410008491F901E658FE4F1491F901E054FE4F02
:1024200004910023C1F0882319F0698359DF698181
:10243000E02FF0E0EE0FFF1FEA5FFD4FA591B49192
:102440009FB7F8948C91611103C01095812301C04E
:10245000812B8C939FBF0F90DF91CF911F910F9194
:1024600008951F920F920FB60F9211240BB60F9280
:102470002F933F934F935F936F937F938F939F938C
:10248000AF93BF93EF93FF93E0912B05F0912C0551
:102490001995FF91EF91BF91AF919F918F917F918E
:1024A0006F915F914F913F912F910F900BBE0F90C5
:1024B0000FBE0F901F901895FC01A3E0440F551F0D
:1024C000661F771FAA95D1F74115510581E068076E
:1024D000710514F481E00EC033E07595679557954A
:1024E00047953A95D1F74115510581E06807710587
:1024F0001CF482E0828331C023E07595679557957F
:1025000047952A95D1F74115510581E06807710576
:1025100014F483E0EFCF92E0759567955795479552
:102520009A95D1F74115510581E06807710514F4BA
:1025300084E0E0CF82E075956795579547958A9539
:10254000D1F785E082834115510581E06807710567
:1025500024F04FEF5FEF60E070E0518340835093D1
:1025600097004093960080919100887F809391001E
:10257000809191009281892B80939100089510920F
:10258000900020E12093910097CFE1E9F0E02081D5
:10259000DC0112968C91282B208308950F931F93B2
:1025A000CF93DF93EC018B01BA01A9011416150634
:1025B000160617060CF480DF1C830B8381E08093E2
:1025C00071007894CE01DF91CF911F910F91DDCFF3
:1025D0001092950010929400089597FB072E16F420
:1025E000009406D077FD08D047D007FC05D03EF414
:1025F000909581959F4F0895709561957F4F0895AF
:10260000A1E21A2EAA1BBB1BFD010DC0AA1FBB1FF6
:10261000EE1FFF1FA217B307E407F50720F0A21B68
:10262000B30BE40BF50B661F771F881F991F1A94D5
:1026300069F760957095809590959B01AC01BD01FF
:10264000CF010895EE0FFF1F0590F491E02D19942E
:1026500027D0B7FF0895821B930B089521D0A59F23
:10266000900DB49F900DA49F800D911D112408958D
:102670000790F691E02D1994AA1BBB1B51E107C0EE
:10268000AA1FBB1FA617B70710F0A61BB70B881F02
:10269000991F5A95A9F780959095BC01CD01089591
:1026A000A29FB001B39FC001A39F700D811D112493
:1026B000911DB29F700D811D1124911D08955058D8
:1026C000BB27AA270ED075C166D130F06BD120F0A0
:1026D00031F49F3F11F41EF45BC10EF4E095E7FB6B
:1026E00051C1E92F77D180F3BA17620773078407C6
:1026F000950718F071F49EF58FC10EF4E0950B2E3E
:10270000BA2FA02D0B01B90190010C01CA01A00143
:102710001124FF27591B99F0593F50F4503E68F19E
:102720001A16F040A22F232F342F4427585FF3CFDF
:10273000469537952795A795F0405395C9F77EF4B0
:102740001F16BA0B620B730B840BBAF09150A1F0F9
:10275000FF0FBB1F661F771F881FC2F70EC0BA0F7F
:10276000621F731F841F48F4879577956795B79507
:10277000F7959E3F08F0B3CF9395880F08F09927FF
:10278000EE0F979587950895D9D008F481E00895C4
:102790000CD00FC107D140F0FED030F021F45F3FE4
:1027A00019F0F0C0511139C1F3C014D198F3992335
:1027B000C9F35523B1F3951B550BBB27AA27621705
:1027C0007307840738F09F5F5F4F220F331F441F4A
:1027D000AA1FA9F333D00E2E3AF0E0E830D0915082
:1027E0005040E695001CCAF729D0FE2F27D0660F6F
:1027F000771F881FBB1F261737074807AB07B0E8AE
:1028000009F0BB0B802DBF01FF2793585F4F2AF0C3
:102810009E3F510568F0B6C000C15F3FECF3983EA3
:10282000DCF3869577956795B795F7959F5FC9F720
:10283000880F911D9695879597F90895E1E0660FA9
:10284000771F881FBB1F621773078407BA0720F022
:10285000621B730B840BBA0BEE1F88F7E09508958B
:1028600004D06894B111D9C00895BCD088F09F57A6
:1028700090F0B92F9927B751A0F0D1F0660F771FCC
:10288000881F991F1AF0BA95C9F712C0B13081F0AC
:10289000C3D0B1E00895C0C0672F782F8827B85FF4
:1028A00039F0B93FCCF3869577956795B395D9F70D
:1028B0003EF490958095709561957F4F8F4F9F4F17
:1028C0000895E89409C097FB3EF490958095709523
:1028D00061957F4F8F4F9F4F9923A9F0F92F96E96C
:1028E000BB279395F695879577956795B795F111E1
:1028F000F8CFFAF4BB0F11F460FF1BC06F5F7F4F7E
:102900008F4F9F4F16C0882311F096E911C077238F
:1029100021F09EE8872F762F05C0662371F096E898
:10292000862F70E060E02AF09A95660F771F881F67
:10293000DAF7880F9695879597F90895990F00080B
:10294000550FAA0BE0E8FEEF16161706E807F90781
:10295000C0F012161306E407F50798F0621B730B1C
:10296000840B950B39F40A2661F0232B242B252B9D
:1029700021F408950A2609F4A140A6958FEF811D40
:10298000811D089597F99F6780E870E060E00895E1
:102990009FEF80EC089500240A9416161706180677
:1029A0000906089500240A94121613061406050653
:1029B0000895092E0394000C11F4882352F0BB0FE4
:1029C00040F4BF2B11F460FF04C06F5F7F4F8F4F47
:1029D0009F4F089557FD9058440F551F59F05F3F82
:1029E00071F04795880F97FB991F61F09F3F79F031
:1029F00087950895121613061406551FF2CF4695B3
:102A0000F1DF08C0161617061806991FF1CF869534
:102A10007105610508940895E894BB276627772718
:102A2000CB0197F908958ADF08F48FEF08950BD052
:102A3000C0CFB1DF28F0B6DF18F0952309F0A2CFA0
:102A4000A7CF1124EACFC6DFA0F3959FD1F3950F4E
:102A500050E0551F629FF001729FBB27F00DB11D22
:102A6000639FAA27F00DB11DAA1F649F6627B00DB2
:102A7000A11D661F829F2227B00DA11D621F739F9B
:102A8000B00DA11D621F839FA00D611D221F749FA9
:102A90003327A00D611D231F849F600D211D822FF0
:102AA000762F6A2F11249F5750408AF0E1F0882337
:102AB0004AF0EE0FFF1FBB1F661F771F881F915044
:102AC0005040A9F79E3F510570F05CCFA6CF5F3F05
:102AD000ECF3983EDCF3869577956795B795F79577
:102AE000E7959F5FC1F7FE2B880F911D96958795FF
:102AF00097F908959F9309D00F9007FCEE5F2CC0C3
:102B00001DDF880B990B089543CF6CDFE8F3E89441
:102B1000E0E0BB279F57F0F02AED3FE049EC06C00C
:102B2000EE0FBB0F661F771F881F28F0B23A6207AF
:102B30007307840728F0B25A620B730B840BE3957A
:102B40009A9572F7803830F49A95BB0F661F771FFD
:102B5000881FD2F7904813C0EF93E0FF06C0A2EAA7
:102B60002AED3FE049EC5FEBBCDD23DF0F900394DF
:102B700001FC9058E6E1F1E00EC09F3F31F091502A
:102B800020F4879577956795B795880F911D969551
:102B9000879597F908959F938F937F936F93FF93F2
:102BA000EF939B01AC0143DFEF91FF9105D02F9193
:102BB0003F914F915F913BCFDF93CF931F930F9343
:102BC000FF92EF92DF927B018C01689405C0DA2EB0
:102BD000EF0139DFFE01E894A591259135914591EA
:102BE0005591AEF3EF017DDDFE019701A801DA9466
:102BF00079F7DF90EF90FF900F911F91CF91DF91C8
:102C00000895CF93DF938230910510F482E090E035
:102C1000E0912F05F091300520E030E0A0E0B0E039
:102C2000309739F14081518148175907B8F048175A
:102C3000590771F482819381109729F013969C9320
:102C40008E9312972CC09093300580932F0527C048
:102C50002115310531F04217530718F0A901DB01A6
:102C600001C0EF019A01BD01DF010280F381E02D77
:102C7000D7CF21153105F9F0281B390B2430310548
:102C800080F48A819B816115710521F0FB0193839A
:102C9000828304C09093300580932F05FE01329605
:102CA00044C0FE01E20FF31F81939193225031093A
:102CB000398328833AC020912D0530912E05232B8E
:102CC00041F4209102023091030230932E052093AB
:102CD0002D0520910002309101022115310541F4AA
:102CE0002DB73EB74091040250910502241B350BCD
:102CF000E0912D05F0912E05E217F307A0F42E1BAD
:102D00003F0B2817390778F0AC014E5F5F4F24174F
:102D1000350748F04E0F5F1F50932E0540932D0549
:102D20008193919302C0E0E0F0E0CF01DF91CF9179
:102D30000895CF93DF93009709F487C0FC01329781
:102D400013821282C0912F05D0913005209781F413
:102D500020813181280F391F80912D0590912E05FA
:102D60008217930779F5F0932E05E0932D056DC03A
:102D7000DE0120E030E0AE17BF0750F412964D910F
:102D80005C9113979D014115510509F1DA01F3CFCB
:102D9000B383A28340815181840F951F8A179B07BB
:102DA00071F48D919C911197840F951F02969183D8
:102DB000808312968D919C91139793838283211522
:102DC000310529F4F0933005E0932F053EC0D90179
:102DD0001396FC93EE9312974D915D91A40FB51F3E
:102DE000EA17FB0779F480819181840F951F029681
:102DF000D90111969C938E938281938113969C9313
:102E00008E931297E0E0F0E08A819B81009719F0A1
:102E1000FE01EC01F9CFCE01029628813981820FA3
:102E2000931F20912D0530912E052817390769F43D
:102E3000309729F41092300510922F0502C01382AA
:102E40001282D0932E05C0932D05DF91CF91089566
:102E50006F927F928F929F92AF92BF92CF92DF92AA
:102E6000EF92FF920F931F93CF93DF93EC01CB016F
:102E7000209779F4DF91CF911F910F91FF90EF9000
:102E8000DF90CF90BF90AF909F908F907F906F908A
:102E9000B8CEFE01E60FF71F9E0122503109E2175E
:102EA000F30708F4A8C0D9010D911C9111970617DA
:102EB0001707B0F00530110508F49BC0A801445075
:102EC00051094617570708F494C002501109061B10
:102ED000170B019311936D937C93CF012ADF89C067
:102EE0005B01A01AB10A4E01800E911EA0912F0520
:102EF000B0913005612C712C60E070E0109709F4FE
:102F000049C0A815B905C9F5ED90FC901197670166
:102F100042E0C40ED11CCA14DB0478F147018A18C0
:102F20009B08640142E0C40ED11C1296BC9012971B
:102F30001396AC91B5E0CB16D10440F0B282A383D6
:102F400091828082D9018D939C9309C00E5F1F4F9F
:102F50000E0D1F1DF90111830083EB2DFA2F611552
:102F6000710531F0DB011396FC93EE93129741C08B
:102F7000F0933005E0932F053CC06D917C91119743
:102F80006616770608F43B01BD0112960D90BC91C0
:102F9000A02DB4CF60912D0570912E05681579058F
:102FA000E9F468167906D0F44091000250910102CC
:102FB0004115510541F44DB75EB76091040270911F
:102FC0000502461B570BE417F507A8F4F0932E05EE
:102FD000E0932D05F901918380830BC012DE7C0103
:102FE000009749F0A801BE0148D0CE01A2DEC7017A
:102FF00004C0CE0102C080E090E0DF91CF911F912C
:103000000F91FF90EF90DF90CF90BF90AF909F9087
:103010008F907F906F900895662777275CC01F93ED
:10302000FC0199278827BC01E89411911032E9F33B
:10303000193010F01E30C8F31B3249F01D3241F434
:10304000689405C033D0610F711D811D911D1191D0
:1030500010531A30B8F33EF49095809570956195B1
:103060007F4F8F4F9F4F1F91089591119CC18032C8
:1030700019F089508550D0F70895FB01DC0102C09A
:1030800001900D9241505040D8F70895FB01DC01AA
:103090008D91019080190110D9F3990B0895FB01CE
:1030A000DC0101900D920020E1F70895592F482F7F
:1030B000372F262F660F771F881F991F660F771FE0
:1030C000881F991F620F731F841F951F660F771F3C
:1030D000881F991F08958F929F92AF92BF92CF92AF
:1030E000DF92EF92FF920F931F93CF93DF938B01A9
:1030F0006115710521F0DB018C9311969C93EC0115
:103100005E01BFEFAB1ABB0A7501C8808C2D90E041
:10311000ACDF892B11F0E501F3CFEDE2CE1208C050
:103120007E01F2E0EF0EF11CC980DD24D39409C0CA
:103130002BE2C21205C07E0142E0E40EF11CC98000
:10314000D12CE701219743E050E062E472E0CE0128
:103150002DD1892BB9F4239645E050E06DE372E060
:10316000CE0124D1892B09F425960115110519F0FA
:10317000D801CD93DC93D11000C160E070E080E80D
:103180009FE704C143E050E06AE372E0CE010ED154
:10319000892B59F40115110509F4F4C0B2E0EB0EC6
:1031A000F11CF801F182E082EDC0F70160E070E00F
:1031B000CB01C0E0D0E07F01A0EDAA2EAC0C29E04D
:1031C0002A1528F14D2D4260B42E2D2D2870D2FEE7
:1031D00004C0211124C0219622C021112197A5E00D
:1031E000B0E09B01AC013ADA660F771F881F991F88
:1031F0006A0D711D811D911D6839A9E97A078A0739
:10320000A9E19A0760F0BD2DB660BB2E08C02EEF75
:10321000A2120AC0D3FC50C04D2D4860B42E319686
:10322000D701CC90DB2CC7CF2C2D2F7D253409F076
:1032300043C0A081AD3241F4BD2DB061DB2E7F01D2
:1032400022E0E20EF11C0CC07F01AB3231F04FEFF7
:10325000E41AF40A21E030E006C0A2E0EA0EF11C14
:10326000A18122E030E0A053AA3018F0E21AF30A5C
:1032700023C0F70120E030E02038BCE03B075CF4DD
:10328000A901440F551F440F551F240F351F220F4E
:10329000331F2A0F311DAF014F5F5F4F7A01A081AD
:1032A000A053AA3010F4FA01E7CFD4FE03C0319541
:1032B00021953109C20FD31FD1FE09C00115110597
:1032C00031F0E1E0EE1AF108D801ED92FC92F9DA62
:1032D0002D2D2370233019F04B015C0106C04B01EA
:1032E0005C01B7FAB094B7F8B09420E030E0A901DF
:1032F000C501B40149DA882309F43CC0D7FF06C0F0
:10330000D195C195D10909E512E002C001E712E0AB
:103310006801B8E1CB1AD10890E2E92EF12CCE1564
:10332000DF056CF0F8012591359145915491C50167
:10333000B4017DDB4B015C01CE19DF09F0CF0450F5
:103340001109F594E7940C151D0549F78A2D880F8E
:103350008B2D881F8F3F41F020E030E0A901C5018F
:10336000B40112DA811106C082E290E09093320536
:1033700080933105C501B40109C060E070E080E8C8
:103380009FEF04C060E070E080EC9FE7DF91CF9199
:103390001F910F91FF90EF90DF90CF90BF90AF9073
:1033A0009F908F900895992788270895FB01DC014D
:1033B0004150504088F08D9181341CF08B350CF4D5
:1033C000805E659161341CF06B350CF4605E861B89
:1033D000611171F3990B0895881BFCCF12E0CAE7C5
:1033E000D2E000E005C022970109FE010BBF40D9E1
:0E33F000CC37D10780E00807B1F7F894FFCF83
:1033FE00000033052000740D740D740D740D740DE2
:10340E00740D740D740D0133336B4133336B4133D3
:10341E00336B4133336B4133336B4133336B413356
:10342E00336B4133336B4133336B4133336B413346
:10343E00336B4133336B4133336B4133336B413336
:10344E00336B4133336B4133336B4133336B413326
:10345E00336B4133336B4133336B4133336B413316
:10346E00336B4133336B4133336B4133336B413306
:10347E00336B4133336B4133336B4133336B4133F6
:10348E00336B4133336B4169646C6520006675653F
:10349E006C20006452504D200064654F3220006154
:1034AE0072200042616420696E6A656374696F6E92
:1034BE002064656C61792074696D650042616420D9
:1034CE00696E6A656374696F6E2070756C736520C2
:1034DE0074696D6500426164207468726F74746CF7
:1034EE0065206D756C7469706C69657200426164FB
:1034FE00206675656C20726174696F00426164208C
:10350E007468656F7265746963616C2070756C7335
:10351E00652074696D6500596F752772652061208D
:10352E0062616420706572736F6E0054696D652CF4
:10353E00204543542C202020204941542C2020206B
:10354E00204D41502C20202020205450532C202040
:10355E004F494E2C202052504D2C20204465735044
:10356E00572C505752652C526576732C49562C5455
:10357E005057002C200000000000C409350B19091B
:10358E0032092409A3090D0A006E616E00696E6688
:08359E00006F7666002E0000AC
:00000001FF
